:020000040800F2
:1000000000000520251D0008411C0008431C0008B5
:10001000451C0008471C0008491C0008000000009F
:10002000000000000000000000000000A1A7000880
:100030004B1C00080000000041A80008A5A800080B
:10004000751D0008751D0008751D0008751D000848
:10005000751D0008751D0008751D0008751D000838
:10006000751D0008751D0008751D0008751D000828
:10007000751D0008751D0008751D0008751D000818
:10008000751D0008751D0008751D0008751D000808
:10009000751D0008751D0008751D0008751D0008F8
:1000A000751D0008751D0008751D0008751D0008E8
:1000B000751D0008751D0008751D0008751D0008D8
:1000C000751D0008751D0008751D0008751D0008C8
:1000D000751D0008751D0008751D0008751D0008B8
:1000E000751D0008751D0008751D0008751D0008A8
:1000F000751D0008751D0008751D0008751D000898
:10010000751D0008751D0008751D0008751D000887
:10011000751D0008751D00084D1C0008751D0008A0
:10012000751D0008751D0008751D0008751D000867
:10013000751D0008751D0008751D0008751D000857
:10014000751D0008751D0008751D0008751D000847
:10015000751D0008751D0008751D0008751D000837
:10016000751D0008751D0008751D0008751D000827
:10017000751D0008751D0008751D000800000000B1
:10018000751D0008751D0008751D0008751D000807
:10019000751D0008751D0008751D0008751D0008F7
:1001A000591C0008751D0008651C0008751D000815
:1001B000751D0008751D0008751D0008751D0008D7
:0801C000751D0008751D000803
:1001D00010B5054C237833B9044B13B10448AFF381
:1001E00000800123237010BD4003002000000000A8
:1001F0006C4B030808B5034B1BB103490348AFF32D
:10020000008008BD00000000440300206C4B030880
:1002100001F0FF01102A2BDB10F0070F08D010F8B7
:10022000013B013A8B422DD010F0070F42B3F6D1BB
:10023000F0B441EA012141EA014122F007047FF0D4
:1002400000070023F0E80256083C85EA010586EA2B
:10025000010685FA47F5A3FA87F586FA47F6A5FA67
:1002600087F68EB9EED1F0BC01F0FF0102F0070273
:1002700032B110F8013B013A83EA010313B1F8D11E
:100280000020704701387047002D06BF35460338FF
:10029000073815F0010F07D1013015F4807F02BF38
:1002A000013015F4C03F0130F0BC0138704700BF89
:1002B00081F0004102E000BF83F0004330B54FEA17
:1002C00041044FEA430594EA050F08BF90EA020F84
:1002D0001FBF54EA000C55EA020C7FEA645C7FEA17
:1002E000655C00F0E2804FEA5454D4EB5555B8BF3A
:1002F0006D420CDD2C4480EA020281EA030382EAAB
:10030000000083EA010180EA020281EA0303362D3C
:1003100088BF30BD11F0004F4FEA01314FF4801C0F
:100320004CEA113102D0404261EB410113F0004F21
:100330004FEA03334CEA133302D0524263EB4303D8
:1003400094EA050F00F0A780A4F10104D5F1200E76
:100350000DDB02FA0EFC22FA05F2801841F10001D1
:1003600003FA0EF2801843FA05F359410EE0A5F1A5
:1003700020050EF1200E012A03FA0EFC28BF4CF0D6
:10038000020C43FA05F3C01851EBE37101F000458C
:1003900007D54FF0000EDCF1000C7EEB00006EEB99
:1003A0000101B1F5801F1BD3B1F5001F0CD3490823
:1003B0005FEA30004FEA3C0C04F101044FEA44527A
:1003C00012F5800F80F09A80BCF1004F08BF5FEA01
:1003D000500C50F1000041EB045141EA050130BDE1
:1003E0005FEA4C0C404141EB0101013C28BFB1F5F3
:1003F000801FE9D291F0000F04BF01460020B1FA3E
:1004000081F308BF2033A3F10B03B3F120020CDA10
:100410000C3208DD02F1140CC2F10C0201FA0CF0EE
:1004200021FA02F10CE002F11402D8BFC2F1200C53
:1004300001FA02F120FA0CFCDCBF41EA0C01904009
:10044000E41AA2BF01EB0451294330BD6FEA040452
:100450001F3C1CDA0C340EDC04F11404C4F120023D
:1004600020FA04F001FA02F340EA030021FA04F34F
:1004700045EA030130BDC4F10C04C4F1200220FAA6
:1004800002F001FA04F340EA0300294630BD21FAE4
:1004900004F0294630BD94F0000F83F4801306BFAA
:1004A00081F480110134013D4EE77FEA645C18BF9E
:1004B0007FEA655C29D094EA050F08BF90EA020F35
:1004C00005D054EA000C04BF1946104630BD91EA2D
:1004D000030F1EBF0021002030BD5FEA545C05D130
:1004E0004000494128BF41F0004130BD14F580046F
:1004F0003CBF01F5801130BD01F0004545F0FE41E3
:1005000041F470014FF0000030BD7FEA645C1ABF17
:10051000194610467FEA655C1CBF0B46024650EA4E
:10052000013406BF52EA033591EA030F41F400217A
:1005300030BD00BF90F0000F04BF0021704730B500
:100540004FF4806404F132044FF000054FF00001D5
:1005500050E700BF90F0000F04BF0021704730B596
:100560004FF4806404F1320410F0004548BF40426B
:100570004FF000013EE700BF42004FEAE2014FEAC0
:1005800031014FEA02701FBF12F07F4393F07F4F9B
:1005900081F06051704732F07F4208BF704793F09E
:1005A0007F4F04BF41F40021704730B54FF46074B1
:1005B00001F0004521F000411CE700BF50EA0102B4
:1005C00008BF704730B54FF000050AE050EA01025D
:1005D00008BF704730B511F0004502D5404261EBCD
:1005E00041014FF4806404F132045FEA915C3FF40E
:1005F000D8AE4FF003025FEADC0C18BF03325FEAAB
:10060000DC0C18BF033202EBDC02C2F1200300FA5B
:1006100003FC20FA02F001FA03FE40EA0E0021FA80
:1006200002F11444BDE600BF70B54FF0FF0C4CF46E
:10063000E06C1CEA11541DBF1CEA135594EA0C0F20
:1006400095EA0C0F00F0DEF82C4481EA030621EA5B
:100650004C5123EA4C5350EA013518BF52EA033596
:1006600041F4801143F4801338D0A0FB02CE4FF048
:100670000005E1FB02E506F00042E0FB03E54FF078
:100680000006E1FB03569CF0000F18BF4EF0010E70
:10069000A4F1FF04B6F5007F64F5407404D25FEA6C
:1006A0004E0E6D4146EB060642EAC62141EA55511F
:1006B0004FEAC52040EA5E504FEACE2EB4F1FD0C61
:1006C00088BFBCF5E06F1ED8BEF1004F08BF5FEADF
:1006D000500E50F1000041EB045170BD06F0004691
:1006E00046EA010140EA020081EA0301B4EB5C043E
:1006F000C2BFD4EB0C0541EA045170BD41F4801136
:100700004FF0000E013C00F3AB8014F1360FDEBF5A
:10071000002001F0004170BDC4F10004203C35DA36
:100720000C341BDC04F11404C4F1200500FA05F3B9
:1007300020FA04F001FA05F240EA020001F000425A
:1007400021F0004110EBD37021FA04F642EB0601D0
:100750005EEA430E08BF20EAD37070BDC4F10C04FA
:10076000C4F1200500FA04F320FA05F001FA04F2BE
:1007700040EA020001F0004110EBD37041F10001AA
:100780005EEA430E08BF20EAD37070BDC4F12005B5
:1007900000FA05F24EEA020E20FA04F301FA05F21D
:1007A00043EA020321FA04F001F0004121FA04F2C5
:1007B00020EA020000EBD3705EEA430E08BF20EA95
:1007C000D37070BD94F0000F0FD101F000464000CF
:1007D00041EB010111F4801F08BF013CF7D041EA51
:1007E000060195F0000F18BF704703F00046520055
:1007F00043EB030313F4801F08BF013DF7D043EA26
:100800000603704794EA0C0F0CEA135518BF95EADB
:100810000C0F0CD050EA410618BF52EA4306D1D162
:1008200081EA030101F000414FF0000070BD50EA81
:10083000410606BF1046194652EA430619D094EA0B
:100840000C0F02D150EA013613D195EA0C0F05D1F5
:1008500052EA03361CBF104619460AD181EA030149
:1008600001F0004141F0FE4141F470014FF0000001
:1008700070BD41F0FE4141F4780170BD70B54FF09C
:10088000FF0C4CF4E06C1CEA11541DBF1CEA13551C
:1008900094EA0C0F95EA0C0F00F0A7F8A4EB0504FE
:1008A00081EA030E52EA03354FEA013100F08880F5
:1008B0004FEA03334FF0805545EA131343EA1263BE
:1008C0004FEA022245EA111545EA10654FEA002673
:1008D0000EF000419D4208BF964244F1FD0404F52C
:1008E000407402D25B084FEA3202B61A65EB030588
:1008F0005B084FEA32024FF480104FF4002CB6EB45
:10090000020E75EB030E22BFB61A754640EA0C00C4
:100910005B084FEA3202B6EB020E75EB030E22BF04
:10092000B61A754640EA5C005B084FEA3202B6EB45
:10093000020E75EB030E22BFB61A754640EA9C0004
:100940005B084FEA3202B6EB020E75EB030E22BFD4
:10095000B61A754640EADC0055EA060E18D04FEA92
:10096000051545EA16754FEA06164FEAC30343EA32
:1009700052734FEAC2025FEA1C1CC0D111F4801FFF
:100980000BD141EA00014FF000004FF0004CB6E7F8
:1009900011F4801F04BF01430020B4F1FD0C88BF97
:1009A000BCF5E06F3FF6AFAEB5EB030C04BFB6EBA2
:1009B000020C5FEA500C50F1000041EB045170BD95
:1009C0000EF0004E4EEA113114EB5C04C2BFD4EBC2
:1009D0000C0541EA045170BD41F480114FF0000E46
:1009E000013C90E645EA060E8DE60CEA135594EAC2
:1009F0000C0F08BF95EA0C0F3FF43BAF94EA0C0FC5
:100A00000AD150EA01347FF434AF95EA0C0F7FF439
:100A100025AF104619462CE795EA0C0F06D152EA8D
:100A200003353FF4FDAE1046194622E750EA410671
:100A300018BF52EA43067FF4C5AE50EA41047FF482
:100A40000DAF52EA43057FF4EBAE12E74FF0FF3CE7
:100A500006E000BF4FF0010C02E000BF4FF0010CB8
:100A60004DF804CD4FEA410C7FEA6C5C4FEA430C31
:100A700018BF7FEA6C5C1BD001B050EA410C0CBF80
:100A800052EA430C91EA030F02BF90EA020F0020E2
:100A9000704710F1000F91EA030F58BF994208BF49
:100AA00090422CBFD8176FEAE37040F00100704706
:100AB0004FEA410C7FEA6C5C02D150EA013C07D15D
:100AC0004FEA430C7FEA6C5CD6D152EA033CD3D0A8
:100AD0005DF8040B704700BF8446104662468C46A2
:100AE0001946634600E000BF01B5FFF7B7FF0028D5
:100AF00048BF10F1000F01BD4DF808EDFFF7F4FFFE
:100B00000CBF012000205DF808FB00BF4DF808ED88
:100B1000FFF7EAFF34BF012000205DF808FB00BFAB
:100B20004DF808EDFFF7E0FF94BF012000205DF8CD
:100B300008FB00BF4DF808EDFFF7CEFF94BF012082
:100B400000205DF808FB00BF4DF808EDFFF7C4FF7B
:100B500034BF012000205DF808FB00BF4FEA4102CE
:100B6000B2F1E04324BFB3F5001CDCF1FE5C0DD90B
:100B700001F0004C4FEAC0024CEA5070B2F1004F55
:100B800040EB830008BF20F00100704711F0804F58
:100B900021D113F13872BCBF01F00040704741F41D
:100BA00080114FEA5252C2F11802C2F1200C10FA21
:100BB0000CF320FA02F018BF40F001004FEAC12305
:100BC0004FEAD32303FA0CFC40EA0C0023FA02F3A9
:100BD0004FEA4303CCE77FEA625307D150EA01337F
:100BE0001EBF4FF0FE4040F44000704701F000404F
:100BF00040F0FE4040F40000704700BF7BB972B97E
:100C00000029BEBF00204FF0004106E008BF0028C9
:100C10001CBF6FF000414FF0FF3000F0D3B9ADF1D1
:100C2000080C6DE904CE002909DB002B1ADB00F06B
:100C30004DF8DDF804E0DDE9022304B070474042DE
:100C400061EB4101002B1BDB00F040F8DDF804E014
:100C5000DDE9022304B0404261EB4101524263EB03
:100C600043037047524263EB430300F02FF8DDF873
:100C700004E0DDE9022304B0404261EB410170472A
:100C8000524263EB430300F021F8DDF804E0DDE9B4
:100C9000022304B0524263EB4303704753B94AB98D
:100CA000002908BF00281CBF4FF0FF314FF0FF3074
:100CB00000F088B9ADF1080C6DE904CE00F006F83B
:100CC000DDF804E0DDE9022304B070472DE9F047C8
:100CD000089D8E4604468846002B4AD18A42174614
:100CE00062D9B2FA82F64EB1C6F1200301FA06F8D3
:100CF00020FA03F3B74043EA0808B4404FEA174E1E
:100D00001FFA87FCB8FBFEF1230C0EFB118843EAA7
:100D1000084301FB0CF29A4209D9FB1801F1FF309C
:100D200080F0EA809A4240F2E78002393B449A1A06
:100D3000A3B2B2FBFEF00EFB102243EA024300FB1B
:100D40000CFC9C4509D9FB1800F1FF3280F0D680DD
:100D50009C4540F2D3803B44023840EA0140A3EB7B
:100D60000C0300211DB1F3400022C5E90032BDE8AB
:100D7000F0878B4205D90DB1C5E900010021084675
:100D8000F5E7B3FA83F1002946D1734502D38242D5
:100D900000F20581841A6EEB030201209046002DBB
:100DA000E5D0C5E90048E2E7002A00F09080B2FAF9
:100DB00082F6002E40F0A4808A1A030C4FEA174EE8
:100DC00080B2BCB20121B2FBFEFC0EFB1C2243EA46
:100DD000024304FB0CF29A4207D9FB180CF1FF38CE
:100DE00002D29A4200F2E080C4469B1AB3FBFEF2A4
:100DF0000EFB123340EA034302FB04F49C4207D982
:100E0000FB1802F1FF3002D29C4200F2CA80024677
:100E10001B1B42EA0C40A5E7C1F120068B4022FAD9
:100E200006F71F430EFA01F420FA06F32EFA06FE27
:100E30004FEA1749234300FA01F81FFA87FCBEFB6B
:100E4000F9F01C0C09FB10EE44EA0E4400FB0CFE0A
:100E5000A64502FA01F209D93C1900F1FF3A80F0E7
:100E60009C80A64540F2998002383C44A4EB0E04D5
:100E70001FFA83FEB4FBF9F309FB13444EEA044462
:100E800003FB0CFCA44508D93C1903F1FF3E80F09C
:100E90008280A4457FD9023B3C4443EA0040A4EB56
:100EA0000C04A0FB02EC64457346E14662D35FD0BC
:100EB0005DB1B8EB030264EB090404FA06F622FA0A
:100EC00001F31E43CC40C5E9006400214FE7B1FBAC
:100ED000F2FC010C41EA0E4180B240EA01423B467D
:100EE00038463C46B846BE462026B1FBF7F1A2EB99
:100EF000080241EA0C4166E7014618E710462CE774
:100F0000C6F120022EFA02F3B740B14020FA02F2F5
:100F10004FEA174E0A43B3FBFEF8BCB20EFB183380
:100F2000110C41EA034108FB04F9B04089454FEA3E
:100F3000104380B23ED9791808F1FF3C01D28945AF
:100F40001FD8A1EB0901B1FBFEF909FB04F80EFB68
:100F5000191192B242EA0142424529D2BA1809F166
:100F6000FF31C4D24245C2D2A9F102013A44BEE7E0
:100F7000F0459DD2BEEB02036CEB070C0138E14655
:100F800096E7A7EB09094944A8F1020CB1FBFEF969
:100F900009FB04F8DBE773467FE7504666E708463F
:100FA000FDE63B44023A33E7ACF1020C3B441CE75C
:100FB00049469CE7A1EB0901C446B1FBFEF909FBD8
:100FC00004F8C4E7704700BF014900200AF0E4BDFF
:100FD0002922000808B5642008F0EEFFFBE70000B6
:100FE00010B594B01022002102240AA832F082FE2B
:100FF0001422002103A832F07DFE1D4B192108A800
:101000001A6C42F080521A641B6C03F080530193F7
:10101000019B184B1A6842F440421A6001221B6877
:1010200003F440430293029B4FF48033CDE908233D
:101030004FF48003CDE90E434FF4D873CDE9124449
:10104000CDE9101307F0B8FE07F022FC0F230020B3
:101050000721CDE903344FF4A053CDE905034FF444
:10106000805303A8079308F08FF814B010BD00BF99
:10107000003802400070004030B54FF480738FB0EC
:101080004FF080720E4D06939F2309920122009328
:1010900000230446694628460593CDE90A2341F218
:1010A0008832CDE90733CDE90C3307F057FD41F223
:1010B00088322146284607F01BFE0FB030BD00BF26
:1010C000F803002000B54FF4807391B04FF04072E8
:1010D000EF2808934FF0EB0302A90D4802934FF459
:1010E000406309934FF4005305934FF00003CDE99B
:1010F0000A3214BF0A2206220F9307926A46CDE9EC
:101100000D33CDE9003307F06DFD11B05DF804FB40
:10111000F80300202DE980489DB010220021012510
:101120000FA8002432F0E6FD06F002FB4FF010415C
:10113000CA4B0FA8ADF83C501294CDE9101306F03D
:1011400015FB17230FA88DF83D508DF844308DF80E
:101150004A5006F00BFB042006F0F8FABFF34F8F5D
:10116000BFF36F8FBE4AC2F85042BFF34F8FBFF339
:101170006F8F536943F400335361BFF34F8FBFF355
:101180006F8FC2F88440BFF34F8FD2F8803043F6A0
:10119000E070C3F3C901C3F34E335B0103EA0005FA
:1011A000884645EA8874B8F10108C2F86042F8D26E
:1011B000203B13F1200FF1D1BFF34F8F536943F45C
:1011C00080335361BFF34F8FBFF36F8F05F0F4FF90
:1011D0000024FFF705FF142200210FA832F08AFD3A
:1011E000A04B1021A0481A6B012510274FF0030ACD
:1011F00042F010024FF040099C4E1A631A6BDFF860
:1012000098B202F010020192019A1A6B42F00202A7
:101210001A631A6B02F002020292029A1A6B42F0EF
:1012200001021A631A6B02F001020392039A1A6B0D
:1012300042F040021A631A6B02F040020492049AD0
:101240001A6B42F400721A631A6B02F40072059270
:10125000059A1A6B42F008021A631A6B02F0080230
:101260000692069A1A6B42F480621A631A6B02F4B1
:1012700080620792079A1A6B42F480721A631A6BA3
:1012800002F480720892089A1A6B42F020021A63E4
:101290001A6B02F020020992099A1A6B42F080023E
:1012A0001A631A6B02F080020A920A9A1A6B42F0D1
:1012B00004021A6300221B6B03F004030B930B9BC5
:1012C00006F0A0FD01220821694806F09BFD0122DD
:1012D0004FF48051674806F095FD0022C021664812
:1012E00006F090FD00224021644806F08BFD0FA916
:1012F0005D48CDE9114ACDE90F7506F0FFFB0823E3
:101300000FA95C481194CDE90F3406F0F7FB0823D0
:101310000FA95748CDE90F35CDE9114406F0EEFB92
:101320004FF480530FA95348CDE90F35CDE911444F
:1013300006F0E4FBC0220FA94F48CDE90F25CDE907
:10134000114A06F0DBFB0FA94C48CDE90F95CDE91A
:10135000114A06F0D3FB4A484A4A8480026005627B
:10136000C0E9054406F02EFA474A3046C6E9002493
:10137000C6E90244C6E90A44C6E90C4406F0C1FACB
:1013800029463046414E06F073FB414A0423C6F815
:1013900014904FF002090FA93046B460B462CDF842
:1013A0005490C6E900244FF4C072C6E90337C6E979
:1013B00006244FF480534FF40062C6E90823042347
:1013C0000722CDE913A9CDE91132CDE90F9208F03A
:1013D00031FA59464FF6FF7230460094CBE9005778
:1013E000CBE9025408F046FA284605F009FF5946B1
:1013F0004FF6FF723046CBE90097CBE9025408F074
:1014000039FA082359464FF6FF723046CBE900A758
:10141000CBE9023408F02EFA4FF40C734FF6FF724A
:101420005946009304233046CBF808504FF0180A71
:10143000CBE90037009BCBF80C3008F01BFA40F2E8
:101440002B71304608F035FA4FF0204343F2D202B8
:10145000104E64204FF0804B20E000BF1B000003C3
:1014600000ED00E00038024000040240400500208A
:1014700000280240002002400008024000180240FC
:10148000800500200030024000B0024078030020B8
:10149000400100A0EC0400205C0300201A6005F06D
:1014A000AFFE6B4B6B4A30463462C6E90023C6E997
:1014B0000245C6E90444C6E9064406F0E4FD2146B7
:1014C000304607F007F821463046634E07F028F80B
:1014D000342221460FA832F00DFC604B2821352024
:1014E00040F2152C40F2352E3461B48686F8364031
:1014F000C6E900340923C6E905130B23C6E907032F
:1015000040F21B133046C6E909C340F21D13C6E979
:101510000244C6E90BE307F0A7F84FF48873FF21F4
:101520004FF4F07230461A930F94ADF86C408DF87A
:101530006E404B4ECDE91239CDE914144FF4806959
:101540000521CDE916914FF04041CDE91024CDE9B8
:10155000181222460FA907F052F94248424B046282
:10156000C0E900350423C0E902374FF4A063C0E9A5
:101570000644C0E904A307F09FFA0FA8FFF77CFD1B
:101580009DF83C00FFF79EFD5C2006F0BFF800F0E0
:10159000C7FB3A4621460FA832F0ACFB6B2330461E
:1015A0003461B4610E94C6E900B3C6E90248CDE9DE
:1015B0000C4408F0D1FA4FF480530FA930460F9332
:1015C00008F004FB0CA930460C940E9408F096FB2E
:1015D00021463A460FA8254E32F08CFB244A4FF4A0
:1015E00080333046B4603461B46186F82040F462E0
:1015F000F460F56186F830407561C6E900231D4B43
:10160000B36205F00FFE0FA930461194CDE90F45E6
:1016100005F07CFF00F0B0FB00F0ADFB08F042FCF1
:10162000154A2146154808F077FC154B154A214606
:101630001860154808F070FC144B154A21461860D4
:10164000144808F069FC144B186008F045FCFEE7EC
:1016500068474020005C00404404002000680140CE
:10166000AC030020F8030020001000A0A405002017
:10167000002001400100000FB47B0308D50F0008D3
:1016800074030020907B0308871D0008700300206E
:101690006C7B0308093900086C0300200268034BC7
:1016A0009A4201D105F09ABD704700BF001000407A
:1016B000704700000D4B82B00F216FF001001A6CD3
:1016C00042F080521A641A6C02F080520092009A22
:1016D0005A6C42F480425A6400225B6C03F48043EB
:1016E0000193019B02B005F0D1BF00BF003802405A
:1016F00010B588B004461422002103A832F0FAFA8B
:101700002268104B9A421BD103F58C3303A90E4873
:101710005A6C42F480725A645A6C02F480720192DC
:10172000019A1A6B42F001021A6301221B6B03F04B
:1017300001030293029B0323CDE9032306F0DEF9A4
:1017400008B010BD0020014000000240026882B0D5
:10175000084B9A420BD1D3F8302803F5006342F4CA
:1017600080521A631B6B03F480530193019B02B0F8
:10177000704700BF003002400E4B07B502689A4226
:1017800015D1A3F5F04305215A201A6B42F400024B
:101790001A6300221B6B03F400030193019B05F005
:1017A00075FF5A2003B05DF804EB05F0A1BF03B04C
:1017B0005DF804FB00B0024010B5A8B00446142246
:1017C000002102A832F096FA8422002107A832F004
:1017D00091FA2268174B9A422AD14FF4803307A816
:1017E000079307F09DFD08B1FFF762FF124C4FF41D
:1017F000C07201211148236B43F080032363236BE4
:1018000003F080030093009B1223CDE902230323FE
:10181000CDE90413042302A9069306F06FF9236CA3
:1018200043F400032364236C03F400030193019B3E
:1018300028B010BD005C004000380240001C02408F
:10184000026808B5094B9A420FD1094A802109481C
:10185000136C23F40003136406F034FA4FF4807120
:101860000448BDE8084006F02DBA08BD005C004001
:1018700000380240001C024070B5ACB0044614228F
:10188000002106A832F036FA842200210BA832F09B
:1018900031FA2268484B9A4240F08C800823052098
:1018A00001240B934FF4C07310930223CDE9113040
:1018B0004FF400330BA8CDE9154307F031FD08B113
:1018C000FFF7F6FE3D4B002402250E265A6C06A9B2
:1018D0003B4842F080625A645A6C02F08062009287
:1018E000009A1A6B42F010021A631A6B02F010028F
:1018F0000192019A1A6B42F400721A631A6B02F495
:1019000000720292029A1A6B42F480621A631A6B96
:1019100002F480620392039A1A6B42F040021A6347
:101920001A6B02F040020492049A1A6B42F480721D
:101930001A631B6B03F480730593059B1023CDE999
:101940000635CDE908440A9606F0D8F84EF6FF733E
:1019500006A91C480A96CDE90635CDE9084406F0EB
:10196000CDF8F72306A918480A96CDE90635CDE942
:10197000084406F0C3F84FF4805306A91348CDE994
:1019800006350923CDE908440A9306F0B7F84FF469
:10199000464306A90E480A96CDE90635CDE9084426
:1019A00006F0ACF858202246052105F06FFE5820BD
:1019B00005F09EFE2CB070BD00680140003802406A
:1019C000001002400024024000280240001802409B
:1019D00000200240142200212DE9F0418AB0044683
:1019E0000DEB020032F086F922682C4B9A4251D15D
:1019F0002B4B0225032409269A6B4FF0040805A9F6
:101A0000284842F0020200279A639A6B02F0020211
:101A10000192019A1A6B42F010021A631A6B02F0DB
:101A200010020292029A1A6B42F002021A631A6BB7
:101A300002F002020392039A1A6B42F008021A6340
:101A40001B6B03F008030493049BCDE90585CDE9E6
:101A5000084606F053F8402305A91348CDE905359B
:101A60000A23CDE90774099306F048F805A90E4842
:101A70000996CDE90585CDE9077406F03FF84FF4E6
:101A8000605305A909480996CDE90535CDE90774E4
:101A900006F034F80AB0BDE8F08100BF001000A0E5
:101AA000003802400010024000040240000C0240D6
:101AB000036882B0B3F1804F0AD103F50E331A6C7C
:101AC00042F001021A641B6C03F001030193019BB5
:101AD00002B07047F0B5002387B00393294B1E680E
:101AE000002E4DD10122022703250C241A6001A9E2
:101AF000254B26489A6B42F001029A639B6B03F0D8
:101B000001030093009B4FF68373CDE90454CDE9A4
:101B1000013705F0F3FF48F2331301A91C4805947F
:101B2000CDE90137CDE9036505F0E8FF4CF2037319
:101B300001A918480594CDE90137CDE9036505F001
:101B4000DDFF4FF63F0301A913480594CDE90137A6
:101B5000CDE9036505F0D2FF282301A90F480594BC
:101B6000CDE90137CDE9036505F0C8FF082301A9D8
:101B70000B480594CDE90137CDE9036505F0BEFFBB
:101B800007B0F0BDEC050020003802400010024014
:101B900000180240000C024000140240001C0240E9
:101BA00000080240214B1A6C42F0100270B588B058
:101BB0001A641B6C054601A903A803F010030293E5
:101BC000029B07F08FFB069B4BBB07F07BFB184E7D
:101BD000184B336040F2E733F360174BB0FBF3F37D
:101BE000013B3046736000233361B360B36107F09B
:101BF000B3FF044680B9304607F074FE044658B976
:101C0000362005F075FD0F2D0DD8224629463620C9
:101C100005F03CFD094B1D60204608B070BD07F083
:101C200051FB4000D3E70124F6E700BF0038024033
:101C3000F00500200010004040420F00400000204E
:101C40007047FEE7FEE7FEE7FEE77047014807F052
:101C50008BBE00BFF0050020014806F073BD00BF39
:101C600044040020014805F078BE00BF4005002074
:101C70000120704708B532F0F1F8162303604FF0E9
:101C8000FF3008BD08B532F0E9F816230360FEE71F
:101C900070B50D4614460E46731B9C4201DC20466F
:101CA00070BDAFF3008006F8010BF5E770B50D4687
:101CB00014460E46731B9C4201DC204670BD16F88C
:101CC000010BAFF30080F5E74FF0FF3070474FF4A2
:101CD000005300204B607047012070470020704780
:101CE0000B4A0346116810B509B90A49116010681A
:101CF00009490A4C0344091B8B4206D932F0AEF85D
:101D00000C2303604FF0FF3010BD1360FCE700BFF1
:101D10003C060020B06B012000000520000A0000F6
:101D200070470000DFF834D0002103E00C4B5B5813
:101D3000435004310B480C4B42189A42F6D30B4ADD
:101D400002E0002342F8043B094B9A42F9D305F024
:101D50004BF932F089F8FFF7DDF9704700000520F4
:101D600044B50308000000202801002040030020A3
:101D7000B06B0120FEE7704708B501F08DF9BDE8B2
:101D8000084001F011B901F089B94068704741601D
:101D9000704700004FF0E022D2F8FC3D43F0807322
:101DA000C2F8FC3D054B064AD3F8B01F0A43C3F8FE
:101DB000B02F1A6842F001021A607047001000E06C
:101DC00055CEACC5521A02EB5302B2FBF3F070478A
:101DD000014B5868704700BF001000E0704710B515
:101DE00004460C2130F08CFD204610BD036810B570
:101DF0001B69044631B19847A26863689B1A034483
:101E0000636010BD9847A060FBE70000024B7020A4
:101E1000024A1360DB6818471400002040060020C7
:101E2000704710B50446042130F06AFD204610BD0D
:101E300073B50E4E0D461446336813B9002002B038
:101E400070BD1B69702098470028F7D03368702058
:101E500001AA0DF106015B699847BDF80430012025
:101E60002B60BDF806302360E9E700BF4006002084
:101E70007FB501238DF817204FF47A72CDE9013236
:101E80000DF1170200920A460146054806F06AF96C
:101E900010B1034806F04CF907B05DF804FB00BF31
:101EA000EC0400207FB500230A464FF47A718DF8C8
:101EB00017300123CDE901310DF1170100910146E1
:101EC000054806F029FA10B1034806F031F99DF8EB
:101ED000170007B05DF804FBEC040020032823D8AA
:101EE000DFE800F0020B131A104B102110481A689B
:101EF000B2FA82F2520905F085BF0C4B40215A68B4
:101F0000B2FA82F252090B48F5E7084B80219A6831
:101F1000B2FA82F25209F6E7044B40210648DA6829
:101F2000B2FA82F25209E6E7704700BF4406002089
:101F3000000402400008024000180240032823D891
:101F4000DFE800F0020B131A104B102110481A683A
:101F5000003A18BF012205F055BF0C4B40215A68CA
:101F6000003A18BF01220B48F5E7084B80219A6818
:101F7000003A18BF0122F6E7044B40210648DA6810
:101F8000003A18BF0122E6E7704700BF4406002070
:101F900000040240000802400018024003280FD845
:101FA000DFE800F00206090B1021064805F02FBFFC
:101FB00040210548FAE78021FBE740210348F5E787
:101FC000704700BF000402400008024000180240B1
:101FD00008B5032813D8DFE800F0020A0D0F10211E
:101FE000084805F009FF431E5842584108BD4021EA
:101FF0000548F6E78021FBE740210448F1E700208F
:10200000F1E700BF0004024000080240001802404F
:1020100070B5084D00240126E0B2FFF7D9FF18B1D2
:102020002B68012B18BF2E6001340435052CF3D129
:1020300070BD00BF44060020012380F8781080F8AE
:1020400079307047704700207047000041640039C4
:10205000024B18BF01211970704700BF6F5E01204D
:10206000704700207047836B0BB1084618477047D4
:102070004FF6FF707047406803689B6918477047C8
:102080007047704738B5044601F05EF90849236887
:102090002046084DD3F8903098470023284684F80E
:1020A0004A30FFF777FE0123256184F8703038BD90
:1020B000000000C05406002001F0EAB801F0EEB8BC
:1020C00070B501F06BF910490023C1F88430BFF3FB
:1020D0004F8FD1F8803043F6E074C3F3C900C3F3E7
:1020E0004E335B0103EA0406024646EA8275013A72
:1020F000C1F87452F9D2203B13F1200FF2D1BFF393
:102100004F8FBFF36F8F70BD00ED00E001F048B955
:1021100001F09AB801F06ABA01F072BA01F09EB803
:1021200010B5044618F0AAFD23682046D3F8BC3049
:10213000BDE81040184717F0BDBF10B50446842114
:1021400030F0DEFB204610BD90F834100D4B10B57A
:1021500090F878401A788C4209D03AB90A490B4A6B
:1021600008881488108001220C801A7010BD002A83
:10217000FCD0064A0449148808880C80108000228C
:10218000F3E700BF685E0120665E0120645E012007
:1021900070B50D46194635B9094B40F2FF21094A81
:1021A000094831F0E9FAC0E90F52003A074B18BF6D
:1021B00001221A700368BDE87040D3F890301847C8
:1021C000EB4B0308234C0308714C03086E5E01209F
:1021D00008B5094B1B888B4203D8084B1B889342D8
:1021E00005D9074BA321074A074831F0C5FA074B29
:1021F0001980074B1A8008BD645E0120665E0120CD
:10220000B64C0308194D0308714C03086A5E01209F
:102210006C5E0120034690F87A0018B15868036894
:102220001B68184770470000014608B5034B186843
:1022300001B1012118F03CFD012008BD705E0120B4
:10224000034B00225A609A60024A1A60704700BF2E
:1022500054060020E07B03080121002208B508464F
:1022600007F062FF0A4B186028B90A4B28210A4A76
:102270000A4831F081FA00220421012008F01EF8FA
:10228000074B186018B9074B2C21034AF0E708BD2B
:10229000640600205C4D0308A54D0308D44D0308D7
:1022A000600600201D4E0308024B4FF0FF311868F6
:1022B00007F092BF64060020014B186807F0C8BF02
:1022C00064060020024B0021186807F085BF00BF9C
:1022D00064060020FFF7F0BF0023034803491A46B5
:1022E000006808F031B800BF60060020040000203C
:1022F00013B50023074C01A91A46206808F066F8B8
:102300004FF0FF33002201A9206808F05FF802B007
:1023100010BD00BF6006002003685B6C18470120F9
:10232000704703689B6A1847FEE700000E4B82B0B7
:102330001A6B42F400021A631A6B02F40002019253
:10234000019A1A6942F400021A611A6922F4000221
:102350001A61064B064A1A61064A5A614FF08062BA
:10236000054B9A6002B070470038024040050020DB
:10237000052600082923000800E100E040F2EF30C4
:1023800070470000054B4FF080620360044BC3F8B8
:102390008820BFF34F8FBFF36F8F70470C7D03080A
:1023A00000E100E010B504464FF45A61FFF7EAFF80
:1023B000204630F0A5FA204610BD000008B50A28D6
:1023C00009D8DFE800F006100E0808080810101001
:1023D0001000022008BD054B9021054A054831F048
:1023E000CBF90020F6E70120F4E700BF5F4E0308B9
:1023F0007A4E0308C54E030838B50C46887FFFF7B0
:10240000DDFF174BA58AE28A586342EA054221693B
:102410005A64628BD963521B1A642568082D0ED149
:102420009A611A6158620F4A207F42EA0062DA61BB
:10243000E2681A620C4A5961D9601A6038BD0022FC
:10244000D8611A61E1680A0A4809C1F3C40102F4BB
:10245000784200F4FC6002430A439A63034AECE7C3
:1024600000B0024009000100012302000123030023
:1024700008B50B280BD8DFE800F00612100A0A0A8C
:102480000A0808080808022008BD0520FCE7054BDB
:102490006F21054A054831F06FF90020F4E701206B
:1024A000F2E700BF5F4E03080C4F0308C54E030858
:1024B0002DE9F04191F81D800C464046FFF7D8FF0A
:1024C000A77F05463846FFF7D3FF06463846FFF795
:1024D00075FFA18A628B434B521A1A649A61228B50
:1024E000521A1A61E28A586342EA014221695A6427
:1024F0006268D963DA602068802828D0227F0FD8EC
:10250000202866D0402864D004281AD045EA026505
:10251000344BB84545F40035DD6160D0324A44E0C3
:10252000B0F5807F04D0B0F5007FEFD12F4800E0F8
:102530002F4840EA0262DA61E2681A625E6259611B
:1025400032E045EA026242F40032DA61F6E7A0685E
:10255000021DDA62227F45EA026545F40035DD613D
:102560005E625961017841B1012921D0214B4FF4BC
:102570008D71214A214831F0FFF8DA69418822F44F
:102580007F42013922F0100242EA01220121DA6180
:10259000144BDA6942F02002DA61DA699206FCD45F
:1025A00010229A600029B9D0154A1A60BDE8F0815E
:1025B000B2F1FF01DA69408822F47F4218BF01219D
:1025C000013822F0100242EA002242F01002DA61E1
:1025D000DEE745EA0262034B42F40032B5E742F21D
:1025E0000132E2E700B002400123010009000200CD
:1025F0000A000200564F0308704F0308C54E030837
:1026000001230200024B1B68586803685B69184786
:10261000705E012070B504460A4B0C30002625463A
:10262000602260602672667245F8203B294618F0E9
:1026300093FC04F55A63EE6024359D42FBD120469D
:1026400070BD00BF0C7D0308034B1A68D207FCD491
:1026500023229A60704700BF00B00240094B5A69BC
:10266000D2030AD5BFF34F8F08440029A0EB010223
:1026700004DCBFF34F8FBFF36F8F70472039C3F86F
:102680006822F2E700ED00E030B5104C2568ED0758
:10269000FCD423250904FF2BA56041F001014FF074
:1026A000020565636164E0630AD00949656241EA35
:1026B0000363E361074B22626061E060236030BD29
:1026C000E561039BA363044BF8E700BF00B0024041
:1026D00009000100010002000100030030B50F4CA9
:1026E0002568ED07FCD423251204FF2BA56042F0DA
:1026F00001024FF0020565636264E063E16008D0A7
:102700001B0643F00213E361054B656260612360C1
:1027100030BD044BE3610123F9E700BF00B0024084
:1027200001000200020002FF30B50B4C2568ED07E6
:10273000FCD4232512041B06A56042F001020225E9
:1027400043F4003365636264E063E160E361034B7B
:1027500065626061236030BD00B00240010002008C
:102760004069704790F844007047036B23B9C06A12
:10277000003818BF012070470120704780687047FB
:10278000043010B50C460FC884E80F0010BD704728
:1027900008B5034A40F21221024B034830F0ECFF27
:1027A000AE4F0308C46603080950030810B5044679
:1027B000482130F0A5F8204610BD00002DE9F04377
:1027C0001D46ADF51F7D436B06460F469046BDF88E
:1027D0009842002B35D0002203A8DFF8A490CDE961
:1027E00001320FF0C5FE4FF4F4725021249024A85A
:1027F00009F073FE4246394624A80AF0BDFD0121C6
:1028000024A809F065FF022324A88DF8D8300AF027
:1028100000F82B9B419AA342BDF89C7228BF234627
:102820009742A4EB030428BF174603EB4308640058
:10283000479B9F4209D824A809F06CFF24A809F0FF
:1028400099FE0DF51F7DBDE8F083012201A924A8A2
:102850000AF028F8736B03EB0800984201D825446E
:10286000E6E759789A78C90009EA022201F4FC6186
:102870000A4313F8031B42EAD10225F8022BECE7C6
:1028800000F8FFFF0A4A02600022C0E90522C0E901
:102890000722C0E90922C0E90B22C0E90D12C0E9F4
:1028A0000F2280F84420C0E90322C0E901227047CA
:1028B0005C7D030810B40C4611461A46036B3BB10D
:1028C000036C806BE41A20445DF8044B31F01ABAB3
:1028D000C06AF8E7036B10B573B1036C826BC91A59
:1028E0005318525C98785C780004DB7840EA042046
:1028F000104340EA036010BDC36A5858FBE7036BFE
:1029000043B1036CC91A836B5A18585C527840EA79
:1029100002207047C36A585A7047000070B50446D9
:10292000006B0D461646D8B1E36B934208D20923DB
:102930000D4A65210D4884F844300D4B30F01CFFE2
:102940000368DB689847206B3246A16B03681B69FC
:10295000984710B90D2384F84430A06B256470BDEE
:10296000E06A0844FBE700BF6F5003080950030802
:102970005C5003082DE9F843436904462BB9234B07
:10298000AA21234A234830F0F7FE08228169FFF785
:10299000C5FFA16943F2300646F264370431204690
:1029A000FFF798FFA3691844A36A00F108029A424E
:1029B00006D3012300206361236AA361BDE8F88385
:1029C000636909300822013320F001012046636168
:1029D000A161FFF7A3FFD4F8189020464946FFF7FE
:1029E0008EFF09F1020180462046FFF788FF09F1BA
:1029F000040105462046FFF76DFFB045D2D1BD4228
:102A0000D0D10028CED00120D8E700BFB1500308B4
:102A1000FA500308095003082DE9F04F0446ADF5BC
:102A20001F7D8A461646816908229846FFF776FF81
:102A3000A7692046391DFFF74DFF07F1080102463F
:102A400005462046FFF76AFF636B074633B93C4BE8
:102A500040F2AB113B4A3C4830F08EFE002203A806
:102A6000CDE901320FF084FD4FF4F472502124902F
:102A700024A809F032FD2A46394624A80AF07CFC35
:102A8000012124A809F024FE022324A88DF8D830BF
:102A900009F0BFFEBAF90250479BAB4229D3BAF9FD
:102AA00000904FEA4808BAF804702B9B08FB0566B3
:102AB0004F44BAF80250DFF894B03FB29F4228BFAB
:102AC0001F46BAF8063009EB490A1D44419B2DB256
:102AD0009D4228BF1D46479B9D4210D824A809F05F
:102AE00019FE24A809F046FD01200DF51F7DBDE863
:102AF000F08F012201A924A809F0D4FECCE701221D
:102B000001A924A809F0CEFE626B49465244B9429D
:102B100002F1030201D34644DDE712F8020C12F879
:102B2000013CC0000BEA032300F4FC60034312F8ED
:102B3000030C43EAD00326F811300131E7E700BF68
:102B40002D510308835103080950030800F8FFFFC3
:102B50000129036838BF0121DB6A70B50D460446C0
:102B60009847A84204D223682046DB6A9847054666
:102B70006B1EE6691022204606EB031606F10801DB
:102B8000FFF7CCFE06F110012046FFF7A3FE236AF3
:102B9000043B0344C4E9055370BD000000214822F2
:102BA0002DE9F0410446816180F84410FFF7B6FE3C
:102BB000A6690423624A31462046FFF77BFE40B1F6
:102BC0000323604AF22184F844305F4B5F4830F0C1
:102BD000D3FD06F1080104235D4A2046A161FFF7F9
:102BE00069FE30B10423574AFA2184F84430594B26
:102BF000ECE706F10C010423574A2046A161FFF7D8
:102C000059FE074638B105234E4A40F2011184F8B7
:102C10004430524BDAE706F110012046FFF75AFE26
:102C2000054620B94E4B40F20711464ACEE706F161
:102C3000140804234B4A20464146FFF73BFE002878
:102C400049D0062384F844300423474A06F118018A
:102C50002046FFF72FFE00283FD0072384F844309A
:102C60004544424F0C2220462946FFF757FE05F106
:102C7000080604233A4620463146FFF71BFE94F827
:102C80004430002848D0002B48D1A36AAB4249D831
:102C900005F10C0304352046A3612946FFF71AFE0F
:102CA0003044294660622046FFF714FE06440422A1
:102CB00020463146FFF732FE04232D4A3146204696
:102CC000FFF7F8FD002838D10123E6616361A369AD
:102CD0002362BDE8F0810127B6E7002FC0D006F1DE
:102CE00020012046FFF7F6FD4FF47A7306F130011C
:102CF000B0FBF3F060602046FFF7ECFD06F1400109
:102D0000A0602046FFF7E6FD06F14401E0602046A2
:102D1000FFF7E0FD2061A3E7002BB9D00A2384F878
:102D20004430D6E7291D2046FFF7D4FD85190C2233
:102D300020462946FFF7F2FD99E70B23EFE700BF96
:102D4000DD510308FB510308E25103080950030851
:102D5000285203082D520308455203084A5203081B
:102D6000605203086C52030871520308765203083C
:102D70007B520308C0E90A2100220263FFF70EBF5D
:102D800010B5002304460846E3620B6821639B6884
:102D90009847A0622046BDE81040FFF7FFBE70B420
:102DA000BDF80C50BDF810602AB123B1CDE903562F
:102DB00070BCFFF703BD70BC704700002DE9F04FF9
:102DC0009946436985B004460F4690462BB9294B76
:102DD0007721294A294830F0CFFC08228169FFF782
:102DE0009DFDA66920463146FFF789FDB11C83464B
:102DF0002046FFF784FD311D82462046FFF76AFD1D
:102E000006F10801A36A05460A189A4226D243F23F
:102E100030039B4517D146F264339A4513D190B1E4
:102E20000246A1612046FFF779FD0E9B01462A4626
:102E30002046CDF80080CDE901933B46FFF7AFFF78
:102E4000636901336361A3692B4405B90833013316
:102E5000626A23F001039342A36109D10123012097
:102E60006361236AA36180F0010005B0BDE8F08FC3
:102E70000020F8E7B1500308805203080950030806
:102E80000120704714207047142303FB0100083011
:102E90007047142303FB010008307047012070477E
:102EA00040F64830704740F6483303FB01000830D5
:102EB000704740F6483303FB01000830704701209B
:102EC00070471020704700EB01100830704700EB8E
:102ED000011008307047084601F00EB9034B10B5D9
:102EE0000446036016F046FB204610BD047E03082E
:102EF00010B50446FFF7F2FF1C2120462FF000FD1D
:102F0000204610BD034B10B50446036016F032FB9B
:102F1000204610BDD07D030810B50446FFF7F2FF30
:102F20004FF4356120462FF0EBFC204610BD000029
:102F3000034B10B50446036016F01CFB204610BD81
:102F40009C7D030810B50446FFF7F2FF18212046C8
:102F50002FF0D6FC204610BD084B10B50446036088
:102F600000F67C30FFF7BAFF04F12C00FFF7CAFF30
:102F700004F11400FFF7DCFF204610BD387E030883
:102F800008B50248FFF7E8FF08BD00BF4015002064
:102F900010B50446FFF7E0FF40F60C5120462FF035
:102FA000AFFC204610BD00002DE9F34100F04AFDC2
:102FB0000024054600F04AFD2346014622462846E5
:102FC000009420F0D9FB274B274A2046274D1A6052
:102FD00002F04AF9264B274A27489A6020F034FB32
:102FE0002B68BFF35B8FDB0735D428462FF08AFCB4
:102FF00088B3224C224B04F69C3604F1140004F1F1
:103000002C0804F67C3723606060C4F80880E76011
:10301000266116F0B1FA1B4B4046636116F0ACFA1C
:10302000194B3846E36216F0A7FA184B04F69830AD
:10303000C4F87C3B03F098F8224604F698313046F9
:1030400003F084F8304601F057F8114830F0B2FB35
:1030500028462FF063FC0F4802B0BDE8F041FFF7AF
:1030600011B800BFD45E0120EC0600203C15002002
:103070000C070020F006002008000020401500206A
:10308000387E03089C7D0308D07D0308047E030876
:10309000812F00086806002070470000014817F0E3
:1030A00072B800BF6806002070B5264E264B274C2C
:1030B0003046274D2360FFF7ADFA284625F06EFC19
:1030C00024481EF0D1FA244B00224FF4807123488B
:1030D0001A8683F858205A6683F870205A67DC6095
:1030E000C3E912121E49C3E91A121E49C3E91E019F
:1030F0001D491E48C3F880101D490B604FF4F07144
:10310000C3E90422C3E90622C3E90822C3E90A226B
:10311000C3E90E22C3E91022C3E91422C3E917222E
:10312000C3E901650180134883F8342001804FF41E
:103130008871114801801148018011490A70114AB3
:103140001A6070BD98070020087C0308381500201D
:103150000C070020F0060020680600200000010196
:10316000010000010004440016001400645E012008
:10317000705E01206A5E0120665E01206C5E0120A7
:10318000685E0120207C03080148FFF7FBB800BF00
:10319000980700200020704781807047C1807047E9
:1031A0000181704741817047704770477047704791
:1031B000704710B4C4880368121B84885B6D091BB8
:1031C00012B25DF8044B09B218474FF6FF738381C2
:1031D0004FF0FF3303621368C36110607047002033
:1031E00070478B88838001207047704780F82610D5
:1031F000704790F82600704710B50022B1F90840DA
:10320000B1F90A10028042808480C18010BD002282
:10321000028042808280C28070470177704780EDD3
:10322000080A704780F82410704780F8251070470E
:1032300001207047983070478C3070478430704759
:103240007047704770470000034B902283F85A2361
:1032500083F85823704700BF00E100E0094A0A499B
:10326000D3680A48C3F30A03013B9BB20B80116980
:10327000C1F30A01013901801364536B43F0010368
:1032800053637047006801404E2200204C2200200A
:10329000014BD3F8AC00704700680140024B01229B
:1032A000C3F8AC105A62704700680140124A536973
:1032B000DB0370B51ED50023C2F88430BFF34F8FF7
:1032C000D2F8803043F6E074C3F3C900C3F34E3341
:1032D0005B0103EA0406014646EA81750139C2F83A
:1032E0007452F9D2203B13F1200FF2D1BFF34F8F6C
:1032F000BFF36F8F70BD00BF00ED00E07047382353
:10330000002201FB0333C25490F838300BB9036C30
:1033100083647047704780F84C10704710B50446BE
:1033200058212FF0EDFA204610BD10B504462C218F
:103330002FF0E6FA204610BD10B50446BC212FF050
:10334000DFFA204610BD000038B5044616F007FF2E
:1033500023689D6E1CF0A8FE01462046A8472368FE
:10336000084A2046D3F88C500023A2F57F31A847A5
:10337000054B064A5A60064A1A649A644FF4FF22C3
:103380005A6438BD00F807C01023002068230020CD
:1033900000F40BC016F0CABE16F0D4BE16F090BEF4
:1033A00017F011B890F8252012B103685B6918472F
:1033B0007047000008B531B1044B40F29711044A40
:1033C000044830F0D9F990F8390008BDDB52030801
:1033D000EF5203087C54030810B531B1064B40F29C
:1033E0009111064A064830F0C7F940681146036853
:1033F000BDE810401B6B1847DB520308BE5403089E
:103400007C54030808B529B1034B7A21034A0448C8
:1034100030F0B2F9006908BDDB5203086F560308AB
:103420007C54030808B529B1054B8321054A064899
:1034300030F0A2F941618160C0E9063208BD00BFE9
:10344000DB520308275803087C54030810B50446D0
:1034500029B1274BA421274A274830F08DF9052AA6
:1034600034D8DFE802F003292F34393E406803687E
:103470001B69984750B34FF0FF31606D06F0F8FDBF
:103480000023012294F83E1084F83B3084F8392060
:10349000A360636101B1226284F83E306362E36A33
:1034A0002BB90123206D84F83A3006F0D1FE606D0F
:1034B000BDE8104006F00CBE002380F8393084F8D7
:1034C0003E3003E0036200238360436110BD03626A
:1034D000002383604361F2E7002380F83930012341
:1034E000EDE7003B18BF012380F83D30EEE700BF59
:1034F000DB520308E65903087C54030890F82520A2
:103500001AB190F8242002B11860704770B50446D3
:10351000164629B1314BE721314A324830F02CF9B7
:1035200090F8393033B1304B1B6893F86B20436906
:1035300013444361E36A002B4DD0E169D4E90532BD
:103540005343A2684A43934220D2236A002B42D0BD
:103550004FF0FF31606D06F08BFD236A0BB1002345
:10356000E362E36AFBB90125606D06F0B1FD94F8F2
:1035700039300BB9236A3BB1E36A2BB90123206DC3
:1035800084F83A3006F064FE284670BD94F84C008A
:103590000028DDD09B1AB3FBF1F2994298BF02F1EB
:1035A000FF326262D4E7002294F83C50A3623046B6
:1035B000E262E2682261A2680132A260336333688A
:1035C0005B699847002DCED194F83D30002BCBD1CC
:1035D00084F83950C8E70125C9E700BFDB5203086A
:1035E000BD5B03087C540308705E0120034B4FF061
:1035F00080629A604FF080729A60704700E100E04C
:10360000084B4FF08062C3F88820BFF34F8FBFF3A1
:103610006F8F4FF08072C3F88820BFF34F8FBFF3D6
:103620006F8F704700E100E038B5034690F838002E
:1036300038BB01229860D8609A634FF48072586159
:103640009A874FF4F0729861D86118625862986254
:10365000D8621863586383F83E00CA864FF48872B4
:1036600081F834000A8708639A6C186102F5FF2418
:10367000D3E9101529448C420AD9084B5821084A2D
:1036800003E0084B40F2F511074A084830F074F89F
:103690001A6302F57F329C645A6338BD1B5F0308CE
:1036A0005B5F0308615D0308915D03087C540308B8
:1036B000002370B5124E05468380124B03603368B9
:1036C00093F858200AB1D86C00B998680368DB6A8F
:1036D00098473368B0FA80F4D86C640930B1036855
:1036E000DB6A9847002808BF44F001042CB9064B58
:1036F0002C21064A064830F03FF8284670BD00BF2E
:10370000705E01204C7E0308016103085F610308BD
:103710009861030870B5254E3568BFF35B8F15F0CF
:10372000010540D130462FF0EDF800283BD0204C69
:10373000204B04F134002561E584A562A585C4E928
:103740000035C4E902551EF074FA04F1580019F06E
:10375000BBF8194B2046A365184B40F8843BFFF794
:10376000A7FF174B1748C4F884302433C4F890508F
:10377000C4F88C304FF4C803C4F89C50C4F8A85067
:10378000C4E928350023C4F8AC30C4F8B030C4F81C
:10379000B430C4F8B8300C4BC4F8983030F00AF8A4
:1037A00030462FF0BBF8024870BD00BF5022002009
:1037B00054220020A8A803086C7E0308E47E0308B6
:1037C0005CA80308453200083CA8030838B5184C2B
:1037D00023685BB3174B184A1B6C11888B4216D1B8
:1037E000164B0025198805F037F8236893F86A20EE
:1037F00083F87C50013283F86A20FEF76DFD206863
:1038000017F03CFA2846BDE83840FEF767BB05F0E4
:1038100023F82468236820461B6A98470123002068
:1038200084F87C30BDE83840FEF788BB38BD00BF67
:10383000705E0120006801404E2200204C220020D2
:103840002DE9F74304464FF4707894F83A304FF07E
:10385000FF31002B31D0606D06F00AFC276BA36AA4
:10386000BB4200D1676B266A656856B32B68314648
:1038700028465B6A98470023236284F83B30606DDA
:1038800006F026FC2B684FF4F0723946CDF8008024
:1038900028465E694FF48873B0474FF0FF31064603
:1038A000606D06F0E5FB94F83B30E3B1002384F84B
:1038B0003B30606D06F00CFCC7E7206D06F08CFC19
:1038C000C3E7636A002BDAD02B682846D3E9099353
:1038D0009847616A01442846C847A368626A6662DD
:1038E0001344A360CBE7E7625EB12B6828469B6A6E
:1038F000984701380023E06084F83C6084F83A304F
:10390000D7E70120F6E70000014808B5FFF798FF68
:10391000102300200368042270B504465E6A002369
:103920000D46B0474FF0FF31606D06F0A1FB382324
:1039300003FB0542D16A09B10021D16203FB0545B1
:10394000012385F83B30002385F83930606DBDE8F0
:10395000704006F0BDBB38B500EB810304460D4650
:10396000114658680368DB68984729462046FFF7E8
:10397000D1FF38BD70B50D461146044600EB8502F7
:103980005068026896681A46B04729462046FFF7F5
:10399000C1FF70BD38B5164900251648FEF772FF05
:1039A000154C164B01202A46294623604FF480739C
:1039B000A564A38784F84C0084F83E50C4E91055F0
:1039C000C4E91455C4E90155C4E90355C4E90555D2
:1039D000C4E90755C4E90955C4E90B55C4E90D55B7
:1039E00006F0A2FB2065284606F0FEFA606538BDA9
:1039F000B02300206823002010230020307F03081C
:103A0000704710B5044604212EF07AFF204610BD01
:103A100008B5032913D8DFE801F002060A0E01F009
:103A20006FFC006808BD01F06BFC4068FAE701F02C
:103A300067FC8068F6E701F063FCC068F2E70020ED
:103A4000F0E70000004870477C7F0308292070479A
:103A500013B5002451B1036801AA01948DF8034005
:103A60009C680DF10303A04702B010BD0846FBE7B8
:103A7000C0897047008A7047C08870478088704747
:103A8000807A00F07F007047807AC009704700207C
:103A9000704700009FED010A704700BF0000000062
:103AA000704710B5044608212EF02AFF204610BDAD
:103AB0007047704700F598730868496803C37047FA
:103AC000704770474160704770477047064BC0F8B9
:103AD0004801C0F84C310023C0F8503100F5A27302
:103AE000C0F84031704700BF3D3C0008012303721D
:103AF000704770477047704710B441680346C2680A
:103B00009B68541001EB6200D20748BF0A595DF868
:103B1000044B48BFD35818470346406830B19A68F1
:103B20001AB9D86800F0010070470120704710B53D
:103B300004460C212EF0E4FE204610BD10B50446CC
:103B400014212EF0DDFE204610BD10B504461021D4
:103B50002EF0D6FE204610BD10B504464FF4AE71CF
:103B60002EF0CEFE204610BD10B51CF09DFA036865
:103B7000BDE81040DB6B184710B51CF095FA0368E0
:103B8000BDE810405B6B184713B50446807A0130DE
:103B9000637AC0B29842A07205D901232372002330
:103BA000A37202B010BDB4F90C2000211EF058FD24
:103BB000C30707D500284FF6FF73C8BF012313FAC8
:103BC00080F000B20023E081ADF80230B4F910308B
:103BD0002082ADF80030C31AADF804300C4B1B88BE
:103BE000ADF806301CF060FA02AA036812E906007C
:103BF0001B6C9847A37A012BD3D1064B1B78002B63
:103C0000CFD01CF051FA02B0BDE810401CF052BAFF
:103C1000665E01206E5E012010B50446D0F84001BA
:103C200058B10368DB68984738B1D4F8400103689D
:103C30009B6898470023C4F8403110BD2DE9F14F2F
:103C4000D0E9556A0746B06803681B6A984740F692
:103C50004733984205D8444BA321444A44482FF0A7
:103C60008BFD706803681B6A98470F2803D8414B87
:103C7000A4213E4AF2E7F06803681B6A98470B28C4
:103C800003D83D4BA521394AE8E7DFF8F4901CF052
:103C90000BFA04301CF06EFAD9F8000010B103687A
:103CA000DB689847D9F8000010B103681B68984793
:103CB000DFF8D080D8F8000010B103685B6998473E
:103CC000D7F83C0110B103685B689847D8F800004A
:103CD00010B103681B689847D7F83C0110B103681E
:103CE0009B689847F06800214FF0000B03685B6AFF
:103CF0009847224B0446C0F804B080F808B05946F3
:103D00000360B06803685B6A9847054602F0BEFB33
:103D10007068594603685B6A98470646294602F070
:103D200043FB331DC7F83C612846C9F80040C8F87A
:103D30000050CAF800302B68C6F808A0DB68EE63B4
:103D40009847336830461B689847214628461EF03E
:103D500081FC236820461B699847236820465B69DD
:103D600001B0BDE8F04F1847FA6103088862030804
:103D700062630308A96303084C64030834830308DF
:103D8000B85E0120B45E01202DE9F14FD0E955BAAB
:103D90000746DBF8080003681B6A9847B0F55D7FAB
:103DA00005D2494BA321494A49482FF0E5FCDBF8ED
:103DB000040003681B6A98470F2803D8454BA421C9
:103DC000424AF1E7DBF80C0003681B6A98471328A6
:103DD00003D8414BA5213D4AE6E7DFF808911CF0E6
:103DE00063F904301CF0C6F9D9F8000010B103687B
:103DF000DB689847D9F8000010B103681B68984742
:103E0000DFF8E480D8F8000010B103685B699847D8
:103E1000D7F83C0110B103685B689847D8F80000F8
:103E200010B103681B689847D7F83C0110B10368CC
:103E30009B689847DBF80C000021002603685B6A4A
:103E40009847264B0446867203604FF4A0534660A1
:103E500031460381224BC6811B8806828381DBF8B1
:103E6000080003685B6A9847054602F0B1F9DBF881
:103E70000400314603685B6A98470646294602F00B
:103E800085F9331DC7F83C612846C9F80040C8F8D9
:103E90000050CAF800302B68C6F808A0DB68EE6353
:103EA0009847336830461B689847214628461EF0DD
:103EB000D1FB236820461B699847236820465B692D
:103EC00001B0BDE8F04F1847FA610308EF6403083A
:103ED00062630308A96303084C640308588303085A
:103EE000645E0120B85E0120B45E01202DE9F14F2F
:103EF000D0E9556A0746B06803681B6A9847B0F571
:103F0000967F05D2444BA321444A45482FF034FC08
:103F1000706803681B6A98470F2803D8414BA42197
:103F20003E4AF2E7F06803681B6A98470B2803D8FB
:103F30003D4BA521394AE8E7DFF8F4901CF0B4F8CE
:103F400004301CF017F9D9F8000010B10368DB68E1
:103F50009847D9F8000010B103681B689847DFF84C
:103F6000D480D8F8000010B103685B699847D7F88F
:103F70003C0110B103685B689847D8F8000010B1A5
:103F800003681B689847D7F83C0110B103689B6829
:103F90009847F06800214FF0000B03685B6A984770
:103FA000224B0446C0F804B080F808B059460360BC
:103FB000B06803685B6A9847054602F0DBF97068F1
:103FC000594603685B6A98470646294602F0B0F9ED
:103FD000331DC7F83C612846C9F80040C8F80050B6
:103FE000CAF800302B68C6F808A0DB68EE63984773
:103FF000336830461B689847214628461EF02AFB46
:10400000236820461B699847236820465B6901B0F6
:10401000BDE8F04F184700BFFA610308DF650308E9
:1040200062630308A96303084C640308348303082C
:10403000B85E0120B45E0120044B1B6893F8582041
:104040000AB1D86C00B99868704700BF705E012053
:10405000F8B5174604460E461CF05EF9124B0025D3
:104060001C602946114B2360114BC4E95135114B9B
:104070001868C4E953550368C4E94F559B68C4E9FF
:1040800055769847284601F0EFF8FFF7D5FF26F060
:1040900030FBFFF7D1FF26F0A7FBFFF7CDFF26F09F
:1040A000AFFB2046F8BD00BFC45E0120E0820308DC
:1040B000C8820308705E0120064BC0F84801C0F8B2
:1040C0004C310023C0F8503100F5A273C0F84031E4
:1040D000704700BFED3E0008064BC0F84801C0F82D
:1040E0004C310023C0F8503100F5A273C0F84031C4
:1040F000704700BF893D0008064BC0F84801C0F872
:104100004C310023C0F8503100F5A273C0F84031A3
:10411000704700BF3D3C0008406A7047806A7047A6
:1041200070470B888A889BB2D20A10B54C88C16947
:1041300043EA044351F82200184410BD10B5044668
:10414000BAB1107B68B1537BD27A1B0203F4E063EF
:104150001A43236A03EB82031A888A4202D193F935
:10416000020010BD05D80138043380B20028F3D115
:10417000F7E70020F5E710B504462C212EF0C0FB30
:10418000204610BD30B58BB00446BDF86050089590
:10419000BDF85C5007959DF8505006959DF84C5021
:1041A00005959DF8485004959DF8445003959DF859
:1041B000405002959DF83C500195BDF8385000954F
:1041C0001DF0F4FD064B20462360159BE361169B12
:1041D0002362199B63621A9BA3620BB030BD00BFC0
:1041E0007C8303087047704770477047704770477B
:1041F00030B444680346C2689B68551004EB620003
:10420000D20748BF625930BC48BFD358184703464D
:10421000406830B19A681AB9D86800F00100704758
:104220000120704710B5044610212EF069FB20468E
:1042300010BD10B50446983002F0E8FC04F1F0001F
:1042400002F0C4FC04F5A47002F0A0FC04F5D070E8
:10425000BDE8104002F0FABC00F5FC70884208B5D9
:1042600005D11BF021FFBDE80840FFF745BF08BDA1
:104270000F4B10B5036004460E4B00F5D070036081
:1042800001F07CFA0C4B04F5A470C4F8483101F03D
:104290008DF92046094B40F8F03F01F0D3F9204654
:1042A000074B40F8983F01F01BFA204610BD00BFB5
:1042B000FC830308E092030824910308B8910308E3
:1042C0004C92030810B50446FFF7D2FF4FF4557126
:1042D00020462EF015FB204610BD036870B504463D
:1042E0001B6B154698472368204629465B6BBDE843
:1042F0007040184770B504461D46BDF91060FFF7C1
:10430000ECFF2368294620469B6B9847236831467B
:104310002046DB6BBDE87040184700002DE9F04FE8
:104320008DB004461DF0EAFF904B0025FF2223606C
:104330000DF12C088E4B04F16C0B4FF6FF7684F8D0
:10434000662041465846A4F8926004F5FC7A84F849
:10435000946004F50D79E56304F518772566A56684
:10436000ADF82C60C4E910354FF48073A4F86430C4
:10437000A4F890307F4BC4E91255E366C4E91455A4
:10438000C4E91655C4E91C55C4E91E55C4E92055B5
:10439000C4E9225519F08DFA04F1980318460393E5
:1043A00002F02AFC04F1F0031846049302F004FC26
:1043B00004F5A4731846059302F0DEFB04F5D073F0
:1043C0001846069302F038FC504619F04BFA414665
:1043D0004846ADF82C6018F0DFFA384615F09CF925
:1043E000654B04F140002A462946261D0790C4E982
:1043F000D134624BC4E9D3354FF4887300934FF442
:10440000F073FFF777FF4FF07F430798A3660146ED
:10441000304615F0BBFB2A4629465846FFF75DFF9C
:10442000042341465846ADF82C3019F042FA59465B
:10443000304615F0ABFB1D2203984F21FFF74DFFCF
:104440000399304684F8BD5015F0A0FB3B22049838
:104450004F21FFF742FF0499304615F097FB2422C5
:1044600005984821FFF739FF0599304684F86D51CA
:1044700015F08CFB242206984821FFF72EFF0699A1
:10448000304684F8C55115F081FB5046C9221321EE
:10449000FFF723FF0C2309AA08A9ADF820305046E6
:1044A000ADF824301F23CDF80080ADF82830162356
:1044B000ADF82C300AAB19F040F94FF00513514616
:1044C0003046C4F8303204F55173C4F8203215F088
:1044D0005DFB072341464846ADF82C3019F0E9F959
:1044E00040F229136FF0290248467521009340F2EB
:1044F0003313FFF7FFFE2946484618F008FAB923A0
:104500004946304684F85C3215F040FB3846F722C5
:104510007921FFF7E2FE0A232A462946384600930E
:104520004FF4967315F051F82B466422294638460D
:10453000009515F069F92946384615F044F94146C9
:104540003846ADF82C5015F0B3FA38460C4915F042
:1045500026F83846642115F050F83046394615F0F3
:1045600015FB20460DB0BDE8F08F00BFFC830308AB
:1045700070AA0308C4AB0308E48303085942000887
:10458000FFF000FF70477047704730B4446803463F
:10459000C2689B68551004EB6200D20748BF62599D
:1045A00030BC48BFD35818470346406830B19A68BA
:1045B0001AB9D86800F0010070470120704710B5A3
:1045C000044610212EF09CF9204610BD10B504467B
:1045D0004FF496712EF094F9204610BDE0308842D9
:1045E00008B505D11BF060FDBDE80840FFF784BDAC
:1045F00008BD00000022C0E90122C0E90322C0E991
:104600000522C0E907224FF480728284014A0260C9
:10461000704700BF308403082DE9F04F04468DB089
:1046200000251DF06BFE2646664B4FF026092946F5
:10463000E56304F16C0846F8403B4A463046FF27E4
:104640002FF058FB3046FFF7D5FF5F4B4FF6FF7A50
:104650004A462946236484F866704046A5660DF1F3
:10466000280BADF828A02FF045FB4046FFF7C2FF0E
:10467000564B84F8947004F19807E3665946BDF8E8
:1046800028304046A4F8923019F013F94A462946DA
:1046900038462FF02FFB3846FFF7ACFF4C4BA4F801
:1046A000C4A004F1E00AC4F8983004F10409494BAD
:1046B0005046C4F8C850C4F8C0304FF47F03A4F883
:1046C000D050C4F8CC304FF0FF33C4F8D450C4E914
:1046D000363519F0C7F8404B2A4629463046C4E91A
:1046E00047343E4BC4E94935FFF7F7FD30464FF4F8
:1046F000F071FEF755FD30464FF48871FEF752FD1C
:104700004FF07F4331464846A36602AE15F03EFAAD
:104710002A4629464046FFF7E0FD06225946404614
:10472000ADF8282019F0C5F84146484615F02EFA94
:104730007B2238464F21FFF7D0FD4FF07F433946AB
:104740003046C4F8C830A4F8CC5018F029FC04F165
:10475000D40396E8070083E807001E4B5946384605
:10476000ADF82C500A9318F0B5FE3946484615F0BE
:104770000DFA5046C9221321FFF7AFFD0C2308AAFA
:1047800007A9ADF81C305046ADF820301F23CDF8F6
:1047900000B0ADF824301623ADF8283009AB18F07E
:1047A000CCFF4FF0051348465146C4F8183104F5C4
:1047B0008E73C4F8083115F0E9F920460DB0BDE854
:1047C000F08F00BFB084030870AA0308C4AB0308CD
:1047D000E0A90308B882030898840308DD450008AF
:1047E00070477047704730B444680346C2689B689E
:1047F000551004EB6200D20748BF625930BC48BF75
:10480000D35818470346406830B19A681AB9D86837
:1048100000F0010070470120704710B504461021D8
:104820002EF06EF8204610BD10B50446983002F008
:10483000EDF904F1F00002F0A9F904F5A47002F01A
:1048400005FA04F5D07002F0C1F904F5FC7002F02D
:1048500093FB04F53A7002F007FB04F28C4002F07F
:104860006FFA04F5A86002F031F904F5B36002F0C4
:104870004DF904F21C6002F069F904F2746002F070
:10488000B4FA04F6B81002F001F904F52160BDE8AD
:10489000104002F0A7BB00F58A63994270B5044648
:1048A0000D4602D10368DB6A984704F214439D4227
:1048B00005D1236820461B6BBDE87040184770BDCA
:1048C000D0F8BC3A01331E2B10B50446C0F8BC3AF0
:1048D00008D10022322100F6A80014F0E3FF0023E3
:1048E000C4F8BC3A10BD00002E4B10B5036004465E
:1048F0002D4B00F52160036001F05EFB2B4B04F6AD
:10490000B810C4F8B83900F01AFD294B04F27460ED
:10491000C4F8743601F03FF8264B04F21C60C4F86A
:104920001C3600F0F5FD244B04F5B360C4F898354F
:1049300000F0A0FD214B04F5A860C4F8403500F05C
:104940004BFD1F4B04F28C40C4F88C3400F067FF21
:104950001C4B04F53A70C4F8E83201F032F91A4BF6
:1049600004F5FC70C4F8F83101F03EFA174B04F579
:10497000D070C4F8A03100F065FE154B04F5A470AA
:10498000C4F8483100F0FAFE2046124B40F8F03FE0
:1049900000F00CFE2046104B40F8983F00F0A0FEBF
:1049A000204610BDFC840308F0950308D48E03084C
:1049B0001094030890900308FC8F0308688F030885
:1049C00074930308B494030850950308B89103083E
:1049D000E0920308249103084C92030810B50446A2
:1049E000FFF782FF4FF42C6120462DF089FF20460F
:1049F00010BD0000002310B5C0E90133C0E9033346
:104A0000C0E90733C0E905334FF48073044683845B
:104A1000054B03600B88C384FF2380F8283018F00F
:104A200048FF204610BD00BFC4AB03082DE9F04F7E
:104A30009DB004461DF062FCD84B002504F16C08C3
:104A400023604FF6FF76D64B04F1980B1BA904F1B7
:104A5000F00A4046E563256604F5A479A56604F6E8
:104A6000A807ADF86C60C4E910354FF48073A4F862
:104A70006430FF23C4E9125584F86630C4E9145544
:104A8000C4E91655FFF7B6FF584602F0B5F8504690
:104A900002F072F8484602F0CFF804F5D0731846D9
:104AA0000D9302F089F804F5FC7318460E9302F09A
:104AB00059FA04F53A7318460F9302F0CBF904F251
:104AC00014431846079318F0CDFE04F58A63184680
:104AD000089318F0C7FE04F28C431846109302F0B6
:104AE000CBF804F5A8631846119301F0E5FF04F52F
:104AF000B3631846129301F0FFFF04F5BE631BA9D0
:104B0000ADF86C6018460993FFF774FF04F21C635C
:104B10001846139302F010F804F2746318461493C5
:104B200002F042F904F5F4631BA9ADF86C60184675
:104B3000039317F031FF04F2CC731BA9ADF86C603E
:104B400018460A93FFF756FF04F5FF631BA9ADF85B
:104B50006C6018460B93FFF74DFF04F624031BA966
:104B6000ADF86C601846049317F016FF04F5056362
:104B70001BA9ADF86C601846059317F00DFF04F6FD
:104B80007C031BA9ADF86C6018460C93FFF732FF4D
:104B9000384614F0C1FD04F68C131BA9ADF86C6007
:104BA0001846069317F0F8FE04F6B813261D1846AB
:104BB000159301F061FF04F521631846169302F086
:104BC00007FA784B04F140002A46C4F8AC3A29466B
:104BD000754BC4F8B04AC4F8B43A4FF48873C4F8BB
:104BE000B85AC4F8BC5A00934FF4F0731790FFF70B
:104BF00081FB4FF07F431798A3660146304614F0BF
:104C0000C5FF2A4629464046FFF767FB06231BA936
:104C10004046ADF86C3018F04CFE4146304614F07A
:104C2000B5FF1D2258464F21FFF757FB5946304626
:104C30004FF00B0B14F0AAFF242250464821FFF737
:104C40004CFB5146304684F8155114F09FFF242246
:104C500048464821FFF741FB4946304684F86D51EC
:104C600014F094FF24220D984821FFF736FB0D998C
:104C7000304684F8C55114F089FFB8220E985B21A4
:104C8000FFF72BFB0E9930464FF00A0914F07EFF18
:104C9000BF220F984921FFF720FB0F99304684F877
:104CA0000D5314F073FF07986A224E21FFF715FB8E
:104CB0001E234FF0160A19AAADF868301BAB18A9CD
:104CC000079800931AAB04F6AC28ADF86090ADF8E5
:104CD00064B0ADF86CA018F030FD6FF006130799C2
:104CE0003046C4F83C84C4F84C3484F8395414F089
:104CF0004DFF089864224FF4B771FFF7EEFA2023B6
:104D000019AA18A9ADF868301BAB089800931AAB24
:104D1000ADF86090ADF864B0ADF86CA018F00DFD82
:104D20006FF0061308993046C4F87884C4F88834C4
:104D30004FF0080884F8755414F028FFBF2210982B
:104D40005B21FFF7CAFA1099304684F8B15414F089
:104D50001DFF2A2211984F21FFF7BFFA1199304603
:104D600084F8655514F012FF1D2212984F21FFF7A9
:104D7000B4FA1299304684F8BD5514F007FF3E226C
:104D80000998B021FFF7A9FA15231BA90998ADF8D6
:104D90006C3018F08EFD0999304607E0FC8403085A
:104DA00070AA0308E48403089748000884F815569D
:104DB00014F0ECFE2B2213984F21FFF78EFA139973
:104DC000304684F8415614F0E1FEBF221498492180
:104DD000FFF783FA1499304684F8995614F0D6FEFA
:104DE0001BA90398ADF86C8018F063FD4323712272
:104DF0000398CB2100934A23FFF77CFA29460398B6
:104E000017F085FD0399304684F8C55714F0BEFEAF
:104E10002A460A98B021FFF760FA05231BA90A98D1
:104E2000ADF86C3018F045FD0A99304684F8F1571A
:104E300014F0ACFE09220B98B621FFF74EFA0323BB
:104E40001BA90B98ADF86C3018F033FD0B99304668
:104E500084F81D5814F09AFE28231BA90498ADF875
:104E60006C3018F026FD9C231C2204987C210093B2
:104E7000F023FFF73FFA2946049817F048FD0499FC
:104E8000304684F8495814F081FE26231BA9059862
:104E9000ADF86C3018F00DFD50236A220598C5213D
:104EA0000093FFF727FA2946059817F030FD05997A
:104EB000304684F8755814F069FE7E220C98D8218B
:104EC000FFF70BFA25231BA90C98ADF86C3018F0EE
:104ED000F0FC0C99304684F8A15814F057FE38467F
:104EE00013221D21FFF7F9F92A4629463846642383
:104EF000CDF8009014F069FB64222B462946384611
:104F0000009514F081FC2946384614F05CFC092316
:104F10001BA93846ADF86C3014F0CAFD38461E495E
:104F200014F03DFB38463C2114F067FB394630460F
:104F300014F02CFE1C231BA90698ADF86C3018F059
:104F4000B8FC13230C224146069800931123FFF767
:104F5000D1F92946069817F0DAFC0699304614F084
:104F600015FE1D2215984F21FFF7B7F91599304608
:104F700084F8DD5914F00AFE18221698E621FFF78E
:104F8000ACF93046169984F8355A14F0FFFD2046E6
:104F90001DB0BDE8F08F00BF2C2927FF704700002F
:104FA00030B5164D8FB02C68BFF35B8F14F0010441
:104FB00020D128462DF0A6FCE0B13F230122104964
:104FC0000993104B10480893104B0A940594CDE9AF
:104FD00006430423CDE903320A23CDE90B440093B1
:104FE000CDE90144FFF7CEF809482EF0E3FB28464F
:104FF0002DF094FC04480FB030BD00BF302B0020D2
:10500000E8C45390F4B40308342B002008B5030817
:105010009D4F00087047000030B5164D8FB02C68CA
:10502000BFF35B8F14F0010420D128462DF06AFCF9
:10503000E0B13F23012210490993104B1048089317
:10504000104B0A940594CDE906430423CDE90332BD
:105050001423CDE90B440093CDE90144FFF792F806
:1050600009482EF0A7FB28462DF058FC04480FB045
:1050700030BD00BF602B0020F8C45390F8B4030883
:10508000642B00200CB50308155000087047000081
:1050900030B5164D8FB02C68BFF35B8F14F0010450
:1050A00021D128462DF02EFCE8B13F2301221049E2
:1050B0000993104B10480893104B0A940594CDE9BE
:1050C00006430423CDE903321B230E220093CDE9CE
:1050D0000B44CDE90144FFF755F809482EF06AFB6F
:1050E00028462DF01BFC04480FB030BD902B00204B
:1050F00008C55390FCB40308942B002010B5030896
:105100008D5000087047000030B5164D8FB02C68E8
:10511000BFF35B8F14F0010420D128462DF0F2FB81
:10512000E0B13F23012210490993104B1048089326
:10513000104B0A940594CDE906430423CDE90332CC
:105140002823CDE90B440093CDE90144FFF71AF879
:1051500009482EF02FFB28462DF0E0FB04480FB045
:1051600030BD00BFC02B0020CCC5539004B5030850
:10517000C42B002014B50308055100080020704717
:10518000002070470EB403B503AB002153F8042B85
:1051900001931CF089F802B05DF804EB03B070478E
:1051A0000CB407B504AB53F8042B01931CF07CF846
:1051B00003B05DF804EB02B070470000436C10B51B
:1051C000044673B3038F2BB9184BC521184A1948ED
:1051D0002EF0D2FAC38E00EB43035B8C0BB31DF0B1
:1051E000F7FF238F012B03D8134BCB21134AEEE794
:1051F000E28E40F63F10531C9BB2092B194688BF24
:10520000A3F10A0104EB4101498C814209D10A2B27
:1052100004EB420228BF0023508C04EB4303588464
:1052200051842046BDE810401DF0D4BEBD66030881
:10523000C666030871670308BB670308C9670308EC
:105240001DF091BE10B586B002AC84E806001A4687
:105250000AAB214605930193099B0093089B1AF022
:10526000A5FA06B010BD000038B518BB124B1348A4
:105270001C681349B4B12268224402606268224467
:105280000A60A26814440F4B00221A8000F038F81C
:10529000054600F033F80C4B1C600C4B1D600C4BAA
:1052A000188007E00B4B03600B4B0B600B4B1C682B
:1052B000002CE8D138BD00BFFC2B0020F42B0020CF
:1052C000F02B0020F82B0020C85E0120D05E0120CA
:1052D000CC5E0120E0C55390DCC553900CC65390C2
:1052E000044B1B6853F82100034B1B6803EB400081
:1052F000704700BFF02B0020F42B002001207047E6
:1053000000487047002C002010B5074CFFF784FEC2
:105310002060FFF7F9FE6060FFF742FEA060FFF734
:10532000B7FEE06010BD00BF002C002010B50024C7
:1053300004600C6014601C6010BD806A7047704788
:10534000704710B5044658212DF0DAFA204610BDFA
:1053500037B5002305464FF480711C4A836204462A
:105360008184C0E90133C0E90333C0E90533C0E9F2
:10537000073345F82C2B4FF6FF72A0F8501001A907
:10538000A0F8522080F85420ADF80420C0E90C3376
:10539000C0E90E33C0E91033C0E912330C4BC362CD
:1053A000284618F086FA0B4B01A92846A360112362
:1053B00023630D23ADF8043018F07BFA204629460C
:1053C00014F0E4FB204603B030BD00BF388503086D
:1053D000C4AB030843019B007047704710B50446F7
:1053E00058212DF08DFA204610BD000037B500235E
:1053F00005464FF480711C4A836204468184C0E9EB
:105400000133C0E90333C0E90533C0E9073345F888
:105410002C2B4FF6FF72A0F8501001A9A0F85220D3
:1054200080F85420ADF80420C0E90C33C0E90E33F5
:10543000C0E91033C0E912330C4BC362284618F0A0
:1054400038FA0B4B01A92846A360112323630E23CE
:10545000ADF8043018F02DFA2046294614F096FBDA
:10546000204603B030BD00BFCC850308C4AB0308A1
:1054700043019B007047704710B5044658212DF03A
:105480003FFA204610BD000037B5002305464FF413
:1054900080711C4A836204468184C0E90133C0E9FB
:1054A0000333C0E90533C0E9073345F82C2B4FF629
:1054B000FF72A0F8501001A9A0F8522080F85420E3
:1054C000ADF80420C0E90C33C0E90E33C0E9103355
:1054D000C0E912330C4BC362284618F0EAF90B4BB3
:1054E00001A92846A360112323630F23ADF80430DC
:1054F00018F0DFF92046294614F048FB204603B097
:1055000030BD00BF60860308C4AB030843019B00A5
:105510007047704710B5044658212DF0F1F9204628
:1055200010BD000037B5002305464FF480711C4ABA
:10553000836204468184C0E90133C0E90333C0E9D2
:105540000533C0E9073345F82C2B4FF6FF72A0F85E
:10555000501001A9A0F8522080F85420ADF8042082
:10556000C0E90C33C0E90E33C0E91033C0E912338F
:105570000C4BC362284618F09CF90B4B01A9284636
:10558000A360112323631023ADF8043018F091F9C0
:105590002046294614F0FAFA204603B030BD00BF79
:1055A000F4860308C4AB030843019B0070477047AF
:1055B00010B5044658212DF0A3F9204610BD000077
:1055C00037B5002305464FF480711B4A83620446B9
:1055D0008184C0E90133C0E90333C0E90533C0E980
:1055E000073345F82C2B4FF6FF72A0F8501001A995
:1055F000A0F8522080F85420ADF80420C0E90C3304
:10560000C0E90E33C0E91033C0E912330B4BC3625B
:10561000284618F04EF90A4B01A92846A360112329
:105620002363ADF8043018F044F92046294614F0FD
:10563000ADFA204603B030BD88870308C4AB030829
:1056400043019B007047704710B5044658212DF068
:1056500057F9204610BD000037B5002305464FF42A
:1056600080711C4A836204468184C0E90133C0E929
:105670000333C0E90533C0E9073345F82C2B4FF657
:10568000FF72A0F8501001A9A0F8522080F8542011
:10569000ADF80420C0E90C33C0E90E33C0E9103383
:1056A000C0E912330C4BC362284618F002F90B4BC9
:1056B00001A92846A360112323631223ADF8043007
:1056C00018F0F7F82046294614F060FA204603B097
:1056D00030BD00BF1C880308C4AB030843019B0016
:1056E0007047704710B5044658212DF009F920463F
:1056F00010BD000037B5002305464FF480711C4AE9
:10570000836204468184C0E90133C0E90333C0E900
:105710000533C0E9073345F82C2B4FF6FF72A0F88C
:10572000501001A9A0F8522080F85420ADF80420B0
:10573000C0E90C33C0E90E33C0E91033C0E91233BD
:105740000C4BC362284618F0B4F80B4B01A928464D
:10575000A360112323631323ADF8043018F0A9F8D4
:105760002046294614F012FA204603B030BD00BF8F
:10577000B0880308C4AB030843019B00704770471F
:1057800010B5044658212DF0BBF8204610BD00008E
:1057900037B5002305464FF480711C4A83620446E6
:1057A0008184C0E90133C0E90333C0E90533C0E9AE
:1057B000073345F82C2B4FF6FF72A0F8501001A9C3
:1057C000A0F8522080F85420ADF80420C0E90C3332
:1057D000C0E90E33C0E91033C0E912330C4BC36289
:1057E000284618F066F80B4B01A92846A360112340
:1057F00023631423ADF8043018F05BF820462946E3
:1058000014F0C4F9204603B030BD00BF448903083A
:10581000C4AB030843019B00704770477047704753
:10582000704730B444680346C2689B68551004EB67
:105830006200D20748BF625930BC48BFD3581847EE
:105840000346406830B19A681AB9D86800F0010080
:1058500070470120704710B5044610212DF050F814
:10586000204610BD10B50446B4212DF049F820465D
:1058700010BD00F12C03994270B504460D4603D1CA
:105880000368D3F88C30984704F168039D4206D131
:1058900023682046D3F89030BDE87040184770BDAB
:1058A0004FF480732DE9F04F044687B0002506467B
:1058B000838404F16807314B4FF00C0885624FF088
:1058C000160B4FF0051A04F1A409C0E90155C0E90F
:1058D0000355C0E90555C0E9075546F82C3B30464D
:1058E00017F0C0FF384617F0BDFF254B30460A229F
:1058F000A221C4E92934234BC4E92B35224B05AD41
:10590000A360FEF7EAFC22230DEB080202A9304651
:10591000ADF81030009504ABADF80880ADF80C8000
:10592000ADF814B017F009FF31462046C4F864A062
:10593000C4F8549014F02AF938460A224821FEF798
:10594000CCFC21230DEB080202A93846ADF810303B
:10595000009504ABADF80880ADF80C80ADF814B03C
:1059600017F0EBFE20463946C4F8A0A0C4F890908A
:1059700014F00CF9204607B0BDE8F08FF089030859
:10598000D8890308735800082A01510070477047EE
:105990007047704770477047704700F12C03994279
:1059A00070B504460D4603D10368D3F88C30984790
:1059B00004F1E0039D4204D123682046D3F89030DF
:1059C000984704F1A4039D4204D123682046D3F8EC
:1059D0009430984704F168039D4206D1236820461D
:1059E000D3F89830BDE87040184770BD30B44468B3
:1059F0000346C2689B68551004EB6200D20748BF9B
:105A0000625930BC48BFD35818470346406830B18C
:105A10009A681AB9D86800F00100704701207047F1
:105A200010B5044610212CF06BFF204610BD10B5B8
:105A300004464FF496712CF063FF204610BD000021
:105A40004FF480732DE9F04F044689B000250646D7
:105A5000838404F1680B554B0DF11C0985624FF0EE
:105A6000160A4FF0051804F58E77C0E90155C0E914
:105A70000355C0E90555C0E9075546F82C3B3046AB
:105A800017F0F0FE584617F0EDFE04F1A403184697
:105A9000029317F0E7FE04F1E0031846039317F0B2
:105AA000E1FE434B30460A220E21C4E94734414B04
:105AB000C4E94935404B0C25A360FEF70EFC1F23BB
:105AC00005AA04A93046ADF81830CDF8009006AB11
:105AD000ADF81050ADF81450ADF81CA017F02DFE25
